:10000000C0C00000D9C00000D7C00000D5C00000AB
:10001000D3C00000D1C00000CFC00000CDC00000A0
:10002000CBC00000C9C000003EC3000074C3000084
:10003000C3C00000C1C00000BFC00000BDC00000C0
:10004000BBC00000B9C00000B7C00000B5C00000D0
:10005000B3C00000B1C00000AFC00000AEC00000DF
:10006000ABC00000A9C00000A7C00000A5C00000F0
:10007000A3C00000A1C000009FC000009DC0000000
:100080009BC0000099C0000097C0000095C0000010
:1000900093C0000091C000008FC000008DC0000020
:1000A0008BC0000089C0000087C000000001000074
:1000B000E5001200020000F70029002200002001E4
:1000C0001C00210000090109000300003C0104019B
:1000D0000309044001100203090452012E01C13634
:1000E00001C03600001201000200000020C016808E
:1000F0000400010102000109022900010100C032CF
:10010000090400000203000000092111010001227E
:100110001C00070581034000020705020340000898
:1001200006ABFF0A0002A1017508150026FF009525
:100130004009018102954009029102C004030904AB
:1001400010034D00660067004E0061006D00650001
:1001500000002E035400650065006E0073007900F6
:100160002000520061007700200048004900440050
:1001700020004500780061006D0070006C00650093
:10018000000011241FBECFEFDAE0DEBFCDBF11E0CB
:10019000A0E0B1E0ECEFF9E002C005900D92A032D2
:1001A000B107D9F711E0A0E2B1E001C01D92A53678
:1001B000B107E1F713D020C423CF1F920F920FB6DF
:1001C0000F9211248F931092210181E080932001DE
:1001D0008F910F900FBE0F901F901895FF920F9365
:1001E0001F93CF93DF9380E88093610010926100AA
:1001F000BED0D4D08823E9F380E197E220E931E052
:10020000F9013197F1F70197D9F714BC85E085BD65
:1002100081E080936E001AB817B814B810BA8FEF47
:1002200085B988B98BB981BBC0E0D0E01BEAF12E5B
:100230000DEC11E0809120018823E1F31092200160
:10024000F09225010093260140E050E0642FFA016E
:10025000E050FF4F8081282F30E0220F331FF9013B
:10026000E95DFE4F8F5F808383B190E0042E02C072
:10027000959587950A94E2F7F90180FF04C0EB5D3C
:10028000FE4F138203C0EB5DFE4F1383FA01E85F5C
:10029000FE4F8081282F30E0220F331FF901E95DE6
:1002A000FE4F8F5F808386B190E0062E02C0959549
:1002B00087950A94E2F7F90180FF04C0EB5DFE4FD9
:1002C000138203C0EB5DFE4F1383FA01E05FFE4F24
:1002D0008081282F30E0220F331FF901E95DFE4FA6
:1002E0008F5F808389B190E0062E02C09595879537
:1002F0000A94E2F7F90180FF04C0EB5DFE4F138220
:1003000003C0EB5DFE4F1383FA01E85EFE4F808170
:10031000282F30E0220F331FF901E95DFE4F8F5F78
:1003200080838FB190E002C0959587956A95E2F73A
:10033000F90180FF04C0EB5DFE4F138203C0EB5D4B
:10034000FE4F13834F5F5F4F4830510509F07ECF5A
:10035000E7E5F1E0119281E0E336F807D9F7D083C1
:10036000C183CF01CE9762E31CD0219663CF81E099
:100370008093D70080EA8093D80082E189BD09B4D8
:1003800000FEFDCF80E98093D8001092E00010922B
:1003900022018CE08093E2007894089580912201FC
:1003A0000895DC0180912201882309F47AC12FB7D6
:1003B000F8946093240181E08093E90091E08091BA
:1003C000E80085FD10C02FBF80912401882309F427
:1003D00069C180912201882309F463C12FB7F89481
:1003E0009093E900ECCFFD0181918093F10011968B
:1003F0008C918093F100DF01119681818093F1004F
:10040000FD01319611968C918093F100DF011196D8
:1004100081818093F100FD01319611968C9180933A
:10042000F100DF01119681818093F100FD01319689
:1004300011968C918093F100DF0111968181809358
:10044000F100FD01319611968C918093F100DF014E
:10045000119681818093F100FD01319611968C9166
:100460008093F100DF01119681818093F100FD01FD
:10047000319611968C918093F100DF011196818164
:100480008093F100FD01319611968C918093F100DB
:10049000DF01119681818093F100FD013196119663
:1004A0008C918093F100DF01119681818093F1009E
:1004B000FD01319611968C918093F100DF01119628
:1004C00081818093F100FD01319611968C9180938A
:1004D000F100DF01119681818093F100FD013196D9
:1004E00011968C918093F100DF01119681818093A8
:1004F000F100FD01319611968C918093F100DF019E
:10050000119681818093F100FD01319611968C91B5
:100510008093F100DF01119681818093F100FD014C
:10052000319611968C918093F100DF0111968181B3
:100530008093F100FD01319611968C918093F1002A
:10054000DF01119681818093F100FD0131961196B2
:100550008C918093F100DF01119681818093F100ED
:10056000FD01319611968C918093F100DF01119677
:1005700081818093F100FD01319611968C918093D9
:10058000F100DF01119681818093F100FD01319628
:1005900011968C918093F100DF01119681818093F7
:1005A000F100FD01319611968C918093F100DF01ED
:1005B000119681818093F100FD01319611968C9105
:1005C0008093F100DF01119681818093F100FD019C
:1005D000319611968C918093F100DF011196818103
:1005E0008093F100FD01319611968C918093F1007A
:1005F000DF01119681818093F100FD013196119602
:100600008C918093F100DF01119681818093F1003C
:10061000FD01319611968C918093F100DF011196C6
:1006200081818093F100FD01319611968C91809328
:10063000F100DF01119681818093F100FD01319677
:1006400011968C918093F100DF0111968181809346
:10065000F100FD01319611968C918093F100DF013C
:10066000119681818093F100FD01319611968C9154
:100670008093F100DF01119681818093F100FD01EB
:10068000319611968C918093F10081818093F100D5
:1006900082818093F1008AE38093E8002FBF80E499
:1006A00008958FEF08951F920F920FB60F921124A5
:1006B0008F939F938091E1001092E100982F93FF18
:1006C0000FC01092E90081E08093EB001092EC00E3
:1006D00082E28093ED0088E08093F0001092220186
:1006E00092FF12C080912201882371F08091230132
:1006F000882319F08150809323018091240188235D
:1007000019F08150809324019F918F910F900FBE1B
:100710000F901F9018951F920F920FB60F921124F1
:100720000F931F932F933F934F935F936F937F93F9
:100730008F939F93AF93BF93EF93FF931092E90032
:100740008091E80083FF42C14091F1003091F100B7
:100750008091F100A82FB0E02091F100922F80E06D
:10076000A82BB92B8091F100682F70E02091F10047
:10077000922F80E0682B792B1091F1000091F1000D
:1007800082EF8093E800363009F05AC023EB30E066
:10079000A90145505040F9013797859194918A17E6
:1007A0009B0701F5FA018591949186179707D1F47B
:1007B0009A012E5F3F4FF901659174912E5F3F4F73
:1007C000F9014491212F30E0902F80E0282B392B24
:1007D0002F3F310519F010F02FEF30E0241758F4B7
:1007E000422F09C0295F3F4F495F5F4FF0E0243E31
:1007F0003F0789F6EBC05EEF8091E800282F30E0DC
:10080000C90185709070892BB9F322FDE2C0342FA5
:10081000413208F030E2CB01232F06C0FC010196E3
:10082000E491E093F10021502223C1F7630F711D81
:10083000431B5093E8004423F9F63032E9F2C9C073
:10084000353061F48EEF8093E8008091E80080FFFE
:10085000FCCF8A2F80688093E300BBC0393031F52C
:10086000442309F072C0A09322018EEF8093E80028
:100870008DED90E021E02093E900FC010196E491E8
:10088000E093EB00EE2369F0AC014F5F5F4FFC019A
:1008900084918093EC00CA010196FA01349130935F
:1008A000ED002F5F253039F78EE14AC0383061F412
:1008B000403809F04AC08091E80080FFFCCF809169
:1008C00022018093F1007EC03323D1F48091E800AF
:1008D00080FFFCCF423811F080E00DC06093E9004A
:1008E0008091EB0090E025E0969587952A95E1F7B9
:1008F00081701092E9008093F1001092F10062C0C3
:10090000313011F0333009F54230F9F4AB2BE9F412
:10091000262F2F77822F81508430B8F48EEF80936A
:10092000E8002093E900333009F450C089E1809356
:10093000EB0081E090E002C0880F991F2A95E2F752
:100940008093EA001092EA0044C0672B09F03EC091
:10095000413A11F53130D1F540E45EEF8091E80085
:10096000282F30E0C90185709070892BB9F322FDE2
:1009700030C0942F413208F090E2892F03C01092CA
:10098000F10081508823D9F7491B5093E800442394
:1009900029F7903219F31DC04132C1F43930B1F456
:1009A00090E42BEF8091E80082FFFCCF2093E800D9
:1009B000892F913208F080E2981BA1F78091E8001E
:1009C00080FFFCCF8EEF8093E80003C081E280932C
:1009D000EB00FF91EF91BF91AF919F918F917F912C
:1009E0006F915F914F913F912F911F910F910F90B8
:0C09F0000FBE0F901F901895F894FFCFD9
:1009FC00000102030D0E0F04FFFFFFFFFFFF090AAA
:100A0C0005060708160B170C1514FFFF131211100F
:00000001FF
