:10000000C0C00000D9C00000D7C00000D5C00000AB
:10001000D3C00000D1C00000CFC00000CDC00000A0
:10002000CBC00000C9C00000AAC20000DFC20000AF
:10003000C3C00000C1C00000BFC00000BDC00000C0
:10004000BBC00000B9C00000B7C00000B5C00000D0
:10005000B3C00000B1C00000AFC0000079C1000013
:10006000ABC00000A9C00000A7C00000A5C00000F0
:10007000A3C00000A1C000009FC000009DC0000000
:100080009BC0000099C0000097C0000095C0000010
:1000900093C0000091C000008FC000008DC0000020
:1000A0008BC0000089C0000087C000000001000074
:1000B00068011200020000230129002200004C0107
:1000C0001C00210000350109000300001F0104018C
:1000D0000309040D011002030904DD002E2E035450
:1000E00000650065006E0073007900200052006119
:1000F00000770020004800490044002000450078B7
:100100000061006D0070006C006500000010034D80
:1001100000660067004E0061006D0065000000048D
:1001200003090409022900010100C032090400008A
:100130000203000000092111010001221C00070533
:1001400081034000020705020340000806ABFF0AD6
:100150000002A1017508150026FF009540090181E4
:1001600002954009029102C0120100020000002025
:10017000C016800400010102000101C13601C03631
:10018000000011241FBECFEFDAE0DEBFCDBF11E0CB
:10019000A0E0B1E0E8EAF8E002C005900D92A032DC
:1001A000B107D9F711E0A0E2B1E001C01D92A53678
:1001B000B107E1F702D076C323CF80E880936100D6
:1001C00010926100DBD0F1D08823E9F32FEF83EDAB
:1001D00090E3215080409040E1F700C0000014BC43
:1001E00085E085BD81E080936E001AB817B814B819
:1001F00010BA8FEF85B988B98BB981BBC0E0D0E068
:100200004BEAA42E5DECE52EFF24F39480912001AF
:100210008823E1F310922001A0922501E0922601AB
:10022000A8E1B1E040E051E068E071E000E111E0F8
:1002300080E090E0B82EDD908D2C912C9401220F5F
:10024000331F295D3E4FD394F901D08223B130E0B2
:10025000082E02C0359527950A94E2F7F401EE0FB7
:10026000FF1FEB5DFE4F20FF02C0138201C0F3822F
:10027000F801D1908F018D2C912C9401220F331F06
:10028000295D3E4FD394F901D08226B130E00B2C8A
:1002900002C0359527950A94E2F7F401EE0FFF1F8F
:1002A000EB5DFE4F20FF02C0138201C0F382FB0111
:1002B0002191BF01C22ED12CF601EE0FFF1FE95D87
:1002C000FE4F2F5F208329B130E00B2C02C0359503
:1002D00027950A94E2F7F601EE0FFF1FEB5DFE4F44
:1002E00020FF02C0138201C0F382FA012191AF0105
:1002F000C22ED12CF601EE0FFF1FE95DFE4F2F5FDE
:1003000020832FB130E002C035952795BA94E2F7EB
:10031000F601EE0FFF1FEB5DFE4F20FF02C01382C0
:1003200001C0F38201968830910509F083CFE7E59B
:10033000F1E0119221E0E336F207D9F7D09363019F
:10034000C093640162E385E291E032D021965ECFF2
:100350001F920F920FB60F9211248F9310922101CA
:1003600081E0809320018F910F900FBE0F901F901E
:1003700018958091E80080FFFCCF089581E080937C
:10038000D70080EA8093D80082E189BD09B400FEDD
:10039000FDCF80E98093D8001092E00010922401F4
:1003A0008CE08093E2007894089580912401089570
:1003B000FC0180912401811102C08FEF08958FB755
:1003C000F8946093220191E09093E9002091E80075
:1003D00025FD0DC08FBF80912201882309F4CDC077
:1003E00080912401882349F38FB7F894EDCF908151
:1003F0009093F10091819093F10092819093F1009C
:1004000093819093F10094819093F1009581909362
:10041000F10096819093F10097819093F10090857F
:100420009093F10091859093F10092859093F10063
:1004300093859093F10094859093F1009585909326
:10044000F10096859093F10097859093F100908943
:100450009093F10091899093F10092899093F1002B
:1004600093899093F10094899093F10095899093EA
:10047000F10096899093F10097899093F100908D07
:100480009093F100918D9093F100928D9093F100F3
:10049000938D9093F100948D9093F100958D9093AE
:1004A000F100968D9093F100978D9093F10090A1BB
:1004B0009093F10091A19093F10092A19093F1009B
:1004C00093A19093F10094A19093F10095A1909342
:1004D000F10096A19093F10097A19093F10090A55F
:1004E0009093F10091A59093F10092A59093F10063
:1004F00093A59093F10094A59093F10095A5909306
:10050000F10096A59093F10097A59093F10090A922
:100510009093F10091A99093F10092A99093F1002A
:1005200093A99093F10094A99093F10095A99093C9
:10053000F10096A99093F10097A99093F10090ADE6
:100540009093F10091AD9093F10092AD9093F100F2
:1005500093AD9093F10094AD9093F10095AD90938D
:10056000F10096AD9093F10097AD9093F1009AE36E
:100570009093E8008FBF80E4089580E008951F9273
:100580000F920FB60F9211248F939F938091E100E9
:100590001092E10083FF0FC01092E90091E0909368
:1005A000EB001092EC0092E29093ED0098E09093B3
:1005B000F0001092240182FF12C080912401882350
:1005C00071F080912301882319F0815080932301D9
:1005D00080912201882319F08150809322019F91FC
:1005E0008F910F900FBE0F901F9018951F920F9232
:1005F0000FB60F921124EF92FF920F931F932F9338
:100600003F934F935F936F937F938F939F93AF939A
:10061000BF93EF93FF93CF93DF931F92CDB7DEB7D6
:100620001092E9008091E80083FF21C19091F100D0
:100630008091F1002091F1003091F100132F00E042
:10064000022B2091F1003091F100532F40E07A010C
:10065000E22A6091F1007091F10022EF2093E8000E
:10066000863009F04DC047E08CEA90E0FC0125910E
:1006700034912017310709F007C0FC01329625910B
:1006800034912E153F0511F0079615C0FC013496E4
:10069000459154919A01FC0136968491572F40E080
:1006A000462B4F3F510519F010F04FEF50E048171F
:1006B00028F4842F03C04150C9F6D9C07EEF909131
:1006C000E800492F4570D9F392FDD4C0982F8132AC
:1006D00008F090E2A901692F07C0FA014F5F5F4F50
:1006E000E491E093F10061506111F7CF290F311DC2
:1006F000891B7093E8008111E2CF903201F3BAC0F8
:10070000853041F48EEF8093E80033DE006800937B
:10071000E300B0C0893041F5911170C0009324010D
:100720008EEF8093E80041E08AE791E001C0C901C3
:100730004093E9009C012F5F3F4FFC01549150937F
:10074000EB00552361F0F90124912093EC009C010A
:100750002D5F3F4FFC01329684918093ED004F5FF7
:10076000453029F78EE145C0883049F4903809F0CA
:1007700045C0FFDD809124018093F10074C0811198
:1007800015C09983F6DD9981923851F4E092E90021
:100790008091EB0085FB882780F91092E90001C069
:1007A00080E08093F1001092F1005DC0813011F083
:1007B000833021F5923011F5012B09F058C0E894EF
:1007C000E7F8FF249E2D9150943008F050C09EEF22
:1007D0009093E800E092E900833009F448C089E191
:1007E0008093EB0081E090E00E2C01C0880F0A940A
:1007F000EAF78093EA001092EA003CC0EF28B9F5CE
:10080000913AF1F4813099F580E43EEF9091E8005F
:10081000292F2570D9F392FD2DC0982F813208F031
:1008200090E2292F03C01092F10021502111FBCF3B
:10083000891B3093E8008111E9CF903239F31AC057
:100840009132A9F4893099F480E42BEF982F81320A
:1008500008F090E23091E80032FFFCCF2093E800EE
:10086000891BA1F786DD8EEF8093E80003C081E24B
:100870008093EB000F90DF91CF91FF91EF91BF91AB
:10088000AF919F918F917F916F915F914F913F9128
:100890002F911F910F91FF90EF900F900FBE0F902F
:0808A0001F901895F894FFCF9A
:1008A8001514FFFF1312111005060708160B170C75
:1008B800FFFFFFFFFFFF090A000102030D0E0F04EF
:00000001FF
