:10000000C0C00000D9C00000D7C00000D5C00000AB
:10001000D3C00000D1C00000CFC00000CDC00000A0
:10002000CBC00000C9C000005FC3000094C3000043
:10003000C3C00000C1C00000BFC00000BDC00000C0
:10004000BBC00000B9C00000B7C00000B5C00000D0
:10005000B3C00000B1C00000AFC0000091C10000FB
:10006000ABC00000A9C00000A7C00000A5C00000F0
:10007000A3C00000A1C000009FC000009DC0000000
:100080009BC0000099C0000097C0000095C0000010
:1000900093C0000091C000008FC000008DC0000020
:1000A0008BC0000089C0000087C000000001000074
:1000B000E5001200020000F70029002200002001E4
:1000C0001C00210000090109000300003C0104019B
:1000D0000309044001100203090452012E01C13634
:1000E00001C03600001201000200000020C016808E
:1000F0000400010102000109022900010100C032CF
:10010000090400000203000000092111010001227E
:100110001C00070581034000020705020340000898
:1001200006ABFF0A0002A1017508150026FF009525
:100130004009018102954009029102C004030904AB
:1001400010034D00660067004E0061006D00650001
:1001500000002E035400650065006E0073007900F6
:100160002000520061007700200048004900440050
:1001700020004500780061006D0070006C00650093
:10018000000011241FBECFEFDAE0DEBFCDBF11E0CB
:10019000A0E0B1E0E4E3FAE002C005900D92A032E5
:1001A000B107D9F711E0A0E2B1E001C01D92A53678
:1001B000B107E1F702D03CC423CFAF92BF92CF92F8
:1001C000DF92EF92FF920F931F93CF93DF9380E81C
:1001D0008093610010926100E9D0FFD08823E9F399
:1001E0008FEF93EDA0E381509040A040E1F700C075
:1001F000000014BC85E085BD81E080936E001AB8D4
:1002000017B814B810BA8FEF85B988B98BB981BB0C
:10021000C0E0D0E0FBEABF2EEDECAE2E11E0809105
:1002200020018823E1F310922001B0922501A092D1
:10023000260140E051E0A8E1B1E070E1E72E71E075
:10024000F72E68E0C62E61E0D62E80E090E0082F01
:10025000FA012191AF01622F70E0FB01EE0FFF1F49
:10026000E95DFE4F2F5F208323B130E0082E02C0EE
:10027000359527950A94E2F7660F771F20FF05C092
:100280006B5D7E4FFB01138204C06B5D7E4FFB01F3
:100290001383F60121916F01622F70E0FB01EE0FD5
:1002A000FF1FE95DFE4F2F5F208326B130E0002E57
:1002B00002C0359527950A94E2F7660F771F20FF55
:1002C00005C06B5D7E4FFB01138204C06B5D7E4FEA
:1002D000FB011383F70121917F01622F70E0FB0185
:1002E000EE0FFF1FE95DFE4F2F5F208329B130E045
:1002F000002E02C0359527950A94E2F7660F771F06
:1003000020FF05C06B5D7E4FFB01138204C06B5D57
:100310007E4FFB0113832D91622F70E0FB01EE0FE6
:10032000FF1FE95DFE4F2F5F208329B130E002C03F
:10033000359527950A95E2F7660F771F20FF05C0D0
:100340006B5D7E4FFB01138204C06B5D7E4FFB0132
:10035000138301968830910509F079CFEFE3F1E03E
:10036000119281E0E336F807D9F77E01F09263013C
:10037000C0936401CF01CE9762E332D021964FCF74
:100380001F920F920FB60F9211248F93109221019A
:1003900081E0809320018F910F900FBE0F901F90EE
:1003A00018958091E80080FFFCCF089581E080934C
:1003B000D70080EA8093D80082E189BD09B400FEAD
:1003C000FDCF80E98093D8001092E00010922201C6
:1003D0008CE08093E2007894089580912201089542
:1003E00020912201222309F479C12FB7F894609358
:1003F000240131E03093E9004091E80045FD0EC052
:100400002FBF20912401222309F46AC120912201E7
:10041000222309F467C12FB7F894ECCFFC01319186
:100420003093F100DC0111968C918093F100DF0193
:10043000119681818093F100FD01319611968C9186
:100440008093F100DF01119681818093F100FD011D
:10045000319611968C918093F100DF011196818184
:100460008093F100FD01319611968C918093F100FB
:10047000DF01119681818093F100FD013196119683
:100480008C918093F100DF01119681818093F100BE
:10049000FD01319611968C918093F100DF01119648
:1004A00081818093F100FD01319611968C918093AA
:1004B000F100DF01119681818093F100FD013196F9
:1004C00011968C918093F100DF01119681818093C8
:1004D000F100FD01319611968C918093F100DF01BE
:1004E000119681818093F100FD01319611968C91D6
:1004F0008093F100DF01119681818093F100FD016D
:10050000319611968C918093F100DF0111968181D3
:100510008093F100FD01319611968C918093F1004A
:10052000DF01119681818093F100FD0131961196D2
:100530008C918093F100DF01119681818093F1000D
:10054000FD01319611968C918093F100DF01119697
:1005500081818093F100FD01319611968C918093F9
:10056000F100DF01119681818093F100FD01319648
:1005700011968C918093F100DF0111968181809317
:10058000F100FD01319611968C918093F100DF010D
:10059000119681818093F100FD01319611968C9125
:1005A0008093F100DF01119681818093F100FD01BC
:1005B000319611968C918093F100DF011196818123
:1005C0008093F100FD01319611968C918093F1009A
:1005D000DF01119681818093F100FD013196119622
:1005E0008C918093F100DF01119681818093F1005D
:1005F000FD01319611968C918093F100DF011196E7
:1006000081818093F100FD01319611968C91809348
:10061000F100DF01119681818093F100FD01319697
:1006200011968C918093F100DF0111968181809366
:10063000F100FD01319611968C918093F100DF015C
:10064000119681818093F100FD01319611968C9174
:100650008093F100DF01119681818093F100FD010B
:10066000319611968C918093F100DF011196818172
:100670008093F100FD01319611968C918093F100E9
:10068000DF01119681818093F100FD013196119671
:100690008C918093F100DF01119681818093F100AC
:1006A000FD01319611968C918093F100DF01119636
:1006B00081818093F100FD01319611968C91119703
:1006C0008093F10081818093F10082818093F10019
:1006D0008AE38093E8002FBF80E408958FEF0895A8
:1006E00080E008958FEF08951F920F920FB60F923A
:1006F00011248F939F938091E1001092E10083FF7A
:100700000FC01092E90091E09093EB001092EC0082
:1007100092E29093ED0098E09093F0001092220105
:1007200082FF12C080912201882371F08091230101
:10073000882319F08150809323018091240188231C
:1007400019F08150809324019F918F910F900FBEDB
:100750000F901F9018951F920F920FB60F921124B1
:10076000EF92FF920F931F932F933F934F935F93BB
:100770006F937F938F939F93AF93BF93EF93FF9369
:10078000DF93CF930F92CDB7DEB71092E90080913F
:10079000E80083FF32C12091F1003091F100009117
:1007A000F10010E04091F100942F80E0082B192B0C
:1007B0008091F100E82EFF244091F100942F80E019
:1007C000E82AF92A6091F100A091F10082EF80936C
:1007D000E800363009F059C083EB90E09C012550C9
:1007E0003040FC0137974591549140175107F9F477
:1007F000F901459154914E155F05C9F42E5F3F4FA5
:10080000F901859194912E5F3F4FF9012491462F74
:1008100050E07A2F60E0462B572B4F3F510519F0DF
:1008200010F04FEF50E0421750F4242F08C0079605
:10083000295F3F4FF0E0843E9F0799F6DEC0AEEFA0
:100840004091E80050E0BA01657070706115710563
:10085000B9F342FDD5C0322F213208F030E2AC01AD
:10086000632F07C0FA014F5F5F4FE491E093F100FF
:1008700061506623B9F7830F911D231BA093E800F5
:100880002223F1F63032E1F2BBC0353041F48EEF75
:100890008093E80086DD00680093E300B1C0393042
:1008A00031F5222309F06BC0009322018EEF809373
:1008B000E80041E08DED90E04093E900FC010196F5
:1008C000E491E093EB00EE2369F09C012F5F3F4F32
:1008D000FC0184918093EC00C9010196F9012491F7
:1008E0002093ED004F5F453039F78EE143C038303B
:1008F00049F4203809F043C054DD809122018093EF
:10090000F10077C03323A9F429834BDD29812238F4
:1009100051F4E092E9009091EB0081E095FF80E0D6
:100920001092E90001C080E08093F1001092F10084
:1009300060C0313011F0333011F5223001F501156E
:100940001105E9F44E2D4F77842F81508430B8F48F
:100950008EEF8093E8004093E900333009F44DC0F6
:1009600089E18093EB0081E090E002C0880F991F3D
:100970004A95E2F78093EA001092EA0041C0E11440
:10098000F104D9F5213A11F53130B9F540E45EEFC3
:100990008091E80090E09C012570307021153105B0
:1009A000B9F382FD2DC0842F413208F080E2982FE8
:1009B00003C01092F10091509923D9F7481B50932E
:1009C000E800442329F7803219F31AC02132A9F430
:1009D000393099F480E42BEF982F813208F090E2BF
:1009E0003091E80032FFFCCF2093E800891BA1F78B
:1009F000D8DC8EEF8093E80003C081E28093EB00A7
:100A00000F90CF91DF91FF91EF91BF91AF919F91A7
:100A10008F917F916F915F914F913F912F911F9196
:100A20000F91FF90EF900F900FBE0F901F901895B1
:040A3000F894FFCF68
:100A3400000102030D0E0F04FFFFFFFFFFFF090A71
:100A440005060708160B170C1514FFFF13121110D7
:00000001FF
